:020000040800F2
:1000000038040020650100086D0100086F01000838
:10001000710100087301000875010008000000006C
:100020000000000000000000000000007701000850
:1000300079010008000000007B0100087D01000834
:100040007F0100087F0100087F0100087F01000890
:100050007F0100087F0100087F0100087F01000880
:100060007F0100087F0100087F0100087F01000870
:100070007F0100087F0100087F0100087F01000860
:100080007F0100087F0100087F0100087F01000850
:100090007F0100087F0100087F0100087F01000840
:1000A0007F0100087F0100087F0100087F01000830
:1000B0007F0100087F0100087F0100087F01000820
:1000C0007F0100087F0100087F0100087F01000810
:1000D0007F0100087F0100087F0100087F01000800
:1000E0007F0100087F0100087F0100087F010008F0
:1000F0007F0100087F0100087F0100087F010008E0
:100100007F0100087F0100087F0100087F010008CF
:100110007F0100087F0100087F0100087F010008BF
:100120007F0100087F0100087F0100087F010008AF
:10013000DFF80CD001F09EF900480047911000084C
:1001400038040020EFF30980704780F30988704776
:10015000EFF30880704780F30888704740BA704713
:10016000C0BA70470648804706480047FEE7FEE7EA
:10017000FEE7FEE7FEE7FEE7FEE7FEE7FEE7FEE757
:10018000250F000831010008DD48006840F001003B
:10019000DB49086008464068DA490840D8494860A9
:1001A00008460068D8490840D549086008460068F4
:1001B00020F4802008600846406820F4FE00486073
:1001C0004FF41F0088607047CD49096821F48031E1
:1001D000CB4A11601146096821F480211160B0F505
:1001E000803F03D0B0F5802F0ED106E0C4490968E6
:1001F00041F48031C24A116007E0C149096841F405
:10020000A021BF4A116000E000BF00BF704710B5D9
:1002100001460022002300204A11012A02D1B84CD5
:10022000236806E0022A02D1B54C236A01E0B44CEF
:10023000636A01F01F02012494401C4201D0012096
:1002400000E0002010BD38B50020009000240025FB
:1002500000BF3120FFF7DBFF05460098401C0090EF
:100260000098B0F5A06F01D0002DF2D03120FFF73B
:10027000CEFF08B1012400E00024204638BD01462D
:1002800000209F4A106820F0F80040EAC10010608A
:1002900070479E490860704702460020984B586896
:1002A00020F47C1042EA01031843954B58607047D4
:1002B00096490866704701460020914A506820F030
:1002C00003000843506070478D48406800F00C0000
:1002D0007047014600208A4A506820F0F000084329
:1002E0005060704701460020854A506820F4E06065
:1002F00008435060704701460020814A506820F44E
:10030000605040EAC1005060704729B17C4A527A7F
:1003100002437B4B5A7204E0794A527A8243784B0B
:100320005A7270477A490860704701460020744A43
:10033000506820F440400843506070470021754ADF
:1003400011706F4A82F82010012802D0042808D1C9
:1003500003E001216F4A117004E005216D4A11701C
:1003600000E000BF00BF70476B49086070476449F8
:10037000096A0143624A116270476749443908605B
:10038000704730B500210022002400235C4D6D68C9
:1003900005F00C0121B1042905D0082923D105E07D
:1003A0005E4D056022E05E4D05601FE0544D6D68B6
:1003B00005F47012524D6D6805F48034022505EB8A
:1003C00092421CB9574D554305600BE04C4D6D688A
:1003D00015F4003F03D0544D5543056002E0504DE5
:1003E0005543056002E04D4D056000BF00BF444D20
:1003F0006D6805F0F00109094C4D6B5C0568DD4046
:1004000045603F4D6D6805F4E061090A474D6B5C3E
:100410004568DD4085603A4D6D6805F46051C90A54
:10042000424D6B5C4568DD40C560354D6D6805F437
:100430004041890B3E4D6B5CC568B5FBF3F505612A
:1004400030BD29B12E4A526902432D4B5A6104E056
:100450002B4A526982432A4B5A61704729B1284A74
:1004600092690243264B9A6104E0254A92698243CD
:10047000234B9A61704729B1214AD2690243204B2C
:10048000DA6104E01E4AD26982431D4BDA6170478B
:1004900029B11B4AD2680243194BDA6004E0184ABA
:1004A000D2688243164BDA60704729B1144A126948
:1004B0000243134B1A6104E0114A12698243104B44
:1004C0001A61704714494039086070470F49C86481
:1004D00070470B49C87170470948406A40F0807006
:1004E00007494862704701460020054A92680A425F
:1004F00001D0012000E00020704701498872704758
:10050000001002400000FFF8FFFFF6FE000042422C
:10051000D8004242201002408004424200127A0079
:10052000001BB70000093D00808D5B00000000202B
:100530001000002001460020FE4A106800F038003C
:10054000084310607047FB49096821F00801F94A27
:10055000116011460968014311607047F549096847
:1005600021F01001F34A116011460968014311603E
:100570007047F148EF494860F04848607047EE48DE
:10058000EC494860ED4848607047EA48006940F02F
:100590008000E84908617047E648006940F0800043
:1005A000E449086170470420E249C96811F0010F6D
:1005B00001D001200EE0DF49C96811F0040F01D01D
:1005C000022007E0DB49C96811F0100F01D00320B9
:1005D00000E00420704700B502460423FFF7E3FF64
:1005E000034603E0FFF7DFFF0346521E012B01D154
:1005F000002AF7D102B90523184600BD30B50446DC
:1006000004254FF43020FFF7E6FF0546042D17D1EF
:10061000C848006940F00200C649086108464461C4
:10062000006940F0400008614FF43020FFF7D3FF2D
:100630000546C048006941F6FD710840BD490861A2
:10064000284630BD10B504244FF43020FFF7C3FF17
:100650000446042C16D1B748006940F00400B5499F
:1006600008610846006940F0400008614FF43020FE
:10067000FFF7B1FF0446AF48006941F6FB7108403F
:10068000AC490861204610BD00B502460423FFF7BF
:100690008AFF034603E0FFF786FF0346521E012B45
:1006A00001D1002AF7D102B90523184600BD10B5C3
:1006B00004244FF43020FFF7E7FF0446042C16D142
:1006C0009C48006940F004009A49086108460069A6
:1006D00040F0400008614FF43020FFF7D5FF04469A
:1006E0009448006941F6FB71084092490861204630
:1006F00010BD00208F49C96911F0020F01D00120FF
:1007000000E00020704730B5A5250424FFF7F1FF75
:1007100000B100254FF43020FFF75DFF0446042CA4
:100720003AD18548834988608448886008460069D2
:1007300040F0200008610846006940F04000086170
:100740004FF43020FFF747FF0446042C1BD17948B3
:10075000006941F6DF710840764908610846006982
:1007600040F01000086176480580E002FFF733FF93
:100770000446052C10D06F48006941F6EF7108401F
:100780006C49086108E0052C06D06A48006941F60A
:10079000EF71084067490861204630BD78B50646CC
:1007A0000C46042500200090E802FFF714FF0546E0
:1007B000042D24D15F48006940F001005D490861C3
:1007C0003480E802FFF707FF0546042D10D1B01C66
:1007D0000090200C00990880E802FFF7FCFE054617
:1007E0005448006941F6FE7108405249086106E02C
:1007F0005048006941F6FE7108404E49086128469C
:1008000078BD70B504460D460426F002FFF7E3FEFE
:100810000646042E11D14748006940F001004549C1
:1008200008612580F002FFF7D6FE064641480069C0
:1008300041F6FE7108403F490861304670BD70B511
:1008400005460E460424E002FFF7C5FE0446042CCC
:1008500017D13948374988603848886008460069A8
:1008600040F0100008612E80E002FFF7B4FE04465D
:10087000052C06D02F48006941F6EF7108402D493C
:100880000861204670BD2DE9F04304464FF6FF761F
:100890003746B046B1460425E443E6B2C4F3072721
:1008A000C4F307484FEA1469E802FFF794FE0546CF
:1008B000042D49D120481F49886020488860084697
:1008C000006940F010000861FF2E06D01C48083077
:1008D0000680E802FFF77FFE0546042D08D1FF2FB2
:1008E00006D017480A300780E802FFF774FE054675
:1008F000042D0AD1B8F1FF0F07D011480C30A0F831
:100900000080E802FFF767FE0546042D0AD1B9F121
:10091000FF0F07D00A480E30A0F80090E802FFF75A
:100920005AFE0546052D0FD00248006941F6EF71C9
:10093000084007E00020024023016745AB89EFCD66
:1009400000F8FF1F664908612846BDE8F08330B50E
:10095000054604244FF43020FFF73DFE0446042CE6
:1009600041D160485E4988605F48886008460069F8
:1009700040F0200008610846006940F0400008612E
:100980004FF43020FFF727FE0446042C22D15448B0
:10099000006941F6DF710840514908610846006965
:1009A00040F0100008611DB100205049088002E0AD
:1009B000A5204E4908804FF43020FFF70CFE044676
:1009C000052C10D04648006941F6EF7108404449B3
:1009D000086108E0052C06D04148006941F6DF7146
:1009E00008403F490861204630BDF0B505460E4637
:1009F000174604243B483A4988603B488860E00237
:100A0000FFF7E9FD0446042C19D13548006940F090
:100A100010003349086147F0F80030432843334958
:100A2000891C0880E002FFF7D6FD0446052C06D09D
:100A30002B48006941F6EF710840294908612046BA
:100A4000F0BD2748C069800870472548006A704794
:100A500000202349096811F0200F01D0012000E097
:100A60000020704729B11E4A126902431C4B1A61CB
:100A700004E01B4A12698243194B1A617047014610
:100A80000020012908D1164AD26912F0010F01D0C5
:100A9000012008E0002006E0114AD2680A4201D095
:100AA000012000E0002070470D49C8607047042015
:100AB0000B49C96811F0010F01D001200EE008496F
:100AC000C96811F0040F01D0022007E00449C96889
:100AD00011F0100F01D0032000E004207047000047
:100AE0000020024023016745AB89EFCD00F8FF1FCE
:100AF00010B50446CA48844208D101210420FFF7FA
:100B0000C7FC00210420FFF7C3FC46E0C54884422F
:100B100008D101210820FFF7BBFC00210820FFF7C6
:100B2000B7FC3AE0C048844208D101211020FFF709
:100B3000AFFC00211020FFF7ABFC2EE0BB48844245
:100B400008D101212020FFF7A3FC00212020FFF77E
:100B50009FFC22E0B648844208D101214020FFF7E3
:100B600097FC00214020FFF793FC16E0B148844237
:100B700008D101218020FFF78BFC00218020FFF7A6
:100B800087FC0AE0AC48844207D101218015FFF7B9
:100B90007FFC0021A015FFF77BFC10BD10B50121E3
:100BA0000846FFF775FC00210120FFF771FC10BD1E
:100BB0002DE9F041024600250026002000230024F4
:100BC000002791F803C00CF00F0591F803C01CF04A
:100BD000100F03D091F802C04CEA050591F800C04F
:100BE000BCF1000F31D0146800202BE04FF0010C55
:100BF0000CFA00F3B1F800C00CEA03069E4220D1C3
:100C000083004FF00F0C0CFA03F7BC4305FA03FC0A
:100C10004CEA040491F803C0BCF1280F06D14FF050
:100C2000010C0CFA00FCC2F814C00AE091F803C0F1
:100C3000BCF1480F05D14FF0010C0CFA00FCC2F8D2
:100C400010C0401C0828D1D31460B1F800C0BCF11A
:100C5000FF0F34DD546800202EE000F1080C4FF047
:100C6000010808FA0CF3B1F800C00CEA03069E4232
:100C700021D183004FF00F0C0CFA03F7BC4305FAA7
:100C800003FC4CEA040491F803C0BCF1280F05D121
:100C900000F1080C08FA0CF8C2F8148091F803C0AF
:100CA000BCF1480F07D100F1080C4FF0010808FA19
:100CB0000CF8C2F81080401C0828CED35460BDE860
:100CC000F0814FF6FF710180022181700421C17013
:100CD00070470246002093680B4201D0012000E0DB
:100CE000002070470146886880B2704702460020A5
:100CF000D3680B4201D0012000E00020704701467C
:100D0000C86880B2704701617047416170470AB19D
:100D1000016100E041617047C16070474FF480326B
:100D20000A438261816182618269826970470246F9
:100D30000020424B18684FF68073184040EA0210BA
:100D400008433E4B186070473D49C8617047F0B595
:100D50000A46002300240021002500F00046B6F1D9
:100D6000004F02D1354EF16901E0344E7168C0F395
:100D7000034583B200F44016B6F5401F08D121F0B8
:100D800070612E4E766826F070662C4F7E6012E001
:100D900000F48016B6F5801F06D1032606FA05F486
:100DA000A14341F0706106E0460D360103FA06F6F4
:100DB000B14341F0706122B1460D360103FA06F6E7
:100DC000314300F00046B6F1004F02D11B4EF161F5
:100DD00001E01A4E7160F0BD30B500228B071C0F88
:100DE0000F2303FA04F2154B08338C1053F8243008
:100DF0009343124C08348D1044F8253023468C1050
:100E000053F824308C07240F00FA04F423430B4CCE
:100E100008348D1044F8253030BD0A490860704709
:100E200000080140000C0140001001400014014086
:100E300000180140001C014000200140000001405A
:100E400000002042DC0020420CB500200190009000
:100E50006B48006840F480306949086000BF68480A
:100E6000006800F4003000900198401C0190009848
:100E700018B90198B0F5A06FF1D16148006810F47D
:100E8000003F02D00120009001E000200090009877
:100E9000012842D15B48006840F0100059490860C1
:100EA0000846006820F0030008600846006840F02B
:100EB000020008605248406851494860084640684E
:100EC00048600846406840F48060486008464068D2
:100ED00020F47C1048600846406840F4E810486000
:100EE0000846006840F08070086000BF4448006811
:100EF00010F0007FFAD04248406820F003004049DB
:100F000048600846406840F00200486000BF3C4826
:100F1000406800F00C000828F9D10CBD10B5FFF7AF
:100F200093FF10BD10B53648006840F00100344909
:100F3000086008464068344908403149486008461E
:100F40000068324908402E4908600846006820F4CD
:100F5000802008600846406820F4FE0048604FF496
:100F60001F008860FFF7DAFF4FF000602849086033
:100F700010BD10B5002100200022214B5B6803F05A
:100F80000C0121B1042906D0082928D107E0214B02
:100F9000214C236027E0214B1F4C236023E0184B9A
:100FA0005B6803F47010164B5B6803F48032022315
:100FB00003EB904022B91A4B4343174C23600DE0DA
:100FC0000F4B5B6813F4003F04D0164B4343124CA5
:100FD000236003E0114B43430F4C236003E00D4BB0
:100FE0000D4C236000BF00BF054B5B68C3F30313C8
:100FF0000D4CE15C084B1B68CB40074C236010BDD7
:1010000000100240002002400000FFF8FFFFF6FE43
:1010100008ED00E000127A0014000020001BB70069
:1010200000093D00808D5B001800002010B560486D
:10103000006860490840B0F1005F0FD15C48001DB6
:1010400000685D490860084600685C4908605849C6
:101050000868FFF780F859480068804710BD10B550
:101060005748006853490840B0F1005F0FD1544819
:10107000001D006850490860084600684F49086034
:101080004F490868FFF767F84C480068804710BD73
:10109000002400260027A046002500F09DF94948BD
:1010A00000F0F7F806464748801C00F0F2F80746C3
:1010B0007DE004214448FFF70CFE20B104214248A2
:1010C000FFF723FE03E004213F48FFF71CFE032C3B
:1010D0003BD005DC5CB1012C10D0022C65D114E0B2
:1010E000042C3ED0F42C4BD0FF2C5ED15AE0012EC4
:1010F00002D1601CC4B200E0F42457E0012F02D1F9
:10110000601CC4B200E0FF2450E004212E48FFF729
:10111000E0FD20B104212C48FFF7F7FD03E0042196
:101120002948FFF7F0FD3221214800F053F80A2149
:10113000264800F0B1F805462A4625491C4800F02B
:10114000BEF88046601CC4B230E02946184800F062
:10115000D9F8404502D1601CC4B201E0601EC4B29F
:1011600024E00121174800F035F80021154800F06F
:101170007EF800211348801C00F079F8F42415E073
:1011800004211148FFF7A5FD20B104210E48FFF707
:10119000BCFD03E004210C48FFF7B5FDFFF746FF57
:1011A000FF2403E0FFF75BFF00E000BF00BF80E724
:1011B000006400080000FE2F280000202C00002002
:1011C000001C000800F40108000C014000F80108B0
:1011D000002C01082DE9F04105460E4604270024A5
:1011E000FFF7C7F93520FFF75FFC00BF07E04FF4BA
:1011F000806101FB0450FFF701FA0746641CB4420A
:1012000001D2042FF3D0FFF7C0F9BDE8F0812DE93A
:10121000F04104460F4690463E462546FFF7A9F9A1
:1012200025460CE031882846FFF7EBFA30882988FC
:10123000884202D00020BDE8F081B61CAD1C04EB52
:101240000800A842EED8FFF7A0F90120F3E7F0B5B7
:101250000B4684180146002506E091F800C02E4692
:101260006D1C03F806C0491CA142F6D3F0BD70B551
:1012700004460D46FFF77DF929462046FFF7C1FADF
:101280002088A84201D0002070BDFFF77EF9012020
:10129000FAE7014608787047FEB505460C46002679
:1012A0000020009001900290224669462846FFF7F0
:1012B000CEFF684600F098F806463046FEBD2DE9A0
:1012C000F84306460F469046002400200090002573
:1012D00000BF12E0381902226946FFF7B8FF301943
:1012E00002226946FFF793FF9DF800002844C5B22B
:1012F0009DF801002844C5B2A41C4445EAD3284601
:10130000BDE8F883F8B506460F460024002000909B
:10131000002500BF0DE0301902226946FFF797FF54
:101320009DF800002844C5B29DF801002844C5B2CC
:10133000A41CBC42EFD32846F8BD000010B5FEF750
:1013400023FF4FF48030FEF73FFFFEF77CFF04469B
:10135000012C23D11020FFF701F90220FFF7EAF852
:101360000020FEF7B6FF0020FEF7C5FF0020FEF7C5
:10137000B9FF21050811FEF78FFF0120FEF798FF46
:1013800000BF3920FEF743FF0028FAD00220FEF705
:1013900092FF00BFFEF798FF0828FBD1012109202A
:1013A000FFF75CF810BD08B50420ADF80000102070
:1013B0008DF8030003208DF8020069460948FFF705
:1013C000F7FB08BD10B504210648FFF79CFC04217B
:1013D0000448FFF79AFC10BD10B5FFF7AFFFFFF709
:1013E000E2FF10BD000C014070B5064600F0B6F8F3
:1013F000046805460A220021304600F002F82C60FD
:1014000070BD2DE9F04791460F4680460446002600
:1014100014F8015B2DB100F03FF80068405DC00793
:10142000F6D12B2D02D02D2D18D0641E4A463946F8
:10143000204600F035F827B13968A14201D1C7F83C
:10144000008071054FF002040BD54042002803DDF7
:1014500000F084F80460A007BDE8F08746F48066D9
:10146000E4E70028F8DA00F079F804606FF0004053
:10147000F2E70000064C074D06E0E06840F001038B
:1014800094E8070098471034AC42F6D3FEF754FEB8
:1014900008160008281600080048704704160008BF
:1014A0002DE9F05F82460078002715468B460AF149
:1014B0000104B946302801D09DB113E014F8010BA6
:1014C0000127782803D0582801D045B10AE00DB192
:1014D000102D07D10027102514F8010B02E0082574
:1014E00000E00A250026B0460EE005FB080005FBDB
:1014F00006F1012701EB10461FFA80F8B6F5803F90
:1015000000D3B94614F8010B294600F018F800285A
:10151000EBDABBF1000F05D00FB1641E00E05446BA
:10152000CBF80040B9F1000F06D000F017F8022107
:101530000160C81EBDE8F09F48EA0640FAE73A2875
:1015400000D2303820F02002412A01D3A2F1370026
:10155000884201D34FF0FF307047000000487047C9
:101560003000002002E008C8121F08C1002AFAD18A
:1015700070477047002001E001C1121F002AFBD113
:101580007047004040404040404040404141414160
:10159000414040404040404040404040404040404A
:1015A000404040050202020202020202020202025E
:1015B00002020220202020202020202020020202DF
:1015C0000202020290909090909010101010101053
:1015D0001010101010101010101010101010020227
:1015E0000202020288888888888808080808080893
:1015F0000808080808080808080808080808020277
:101600000202400083150008281600080000002090
:1016100034000000641500085C1600083400002047
:101620000404000074150008000000000102030417
:1016300001020304060708090204060800A24A047E
:101640000000000000000000010203040607080972
:0C1650000000000000000000000000008E
:0400000508000131BD
:00000001FF
